{
  "address": "0xD7745A832D16E4B18df714b1811AD6f90e91F13f",
  "abi": [
    {
      "inputs": [
        {
          "internalType": "string",
          "name": "_name",
          "type": "string"
        },
        {
          "internalType": "string",
          "name": "_symbol",
          "type": "string"
        },
        {
          "internalType": "address",
          "name": "_treasuryWallet",
          "type": "address"
        }
      ],
      "stateMutability": "nonpayable",
      "type": "constructor"
    },
    {
      "anonymous": false,
      "inputs": [
        {
          "indexed": true,
          "internalType": "address",
          "name": "owner",
          "type": "address"
        },
        {
          "indexed": true,
          "internalType": "address",
          "name": "approved",
          "type": "address"
        },
        {
          "indexed": true,
          "internalType": "uint256",
          "name": "tokenId",
          "type": "uint256"
        }
      ],
      "name": "Approval",
      "type": "event"
    },
    {
      "anonymous": false,
      "inputs": [
        {
          "indexed": true,
          "internalType": "address",
          "name": "owner",
          "type": "address"
        },
        {
          "indexed": true,
          "internalType": "address",
          "name": "operator",
          "type": "address"
        },
        {
          "indexed": false,
          "internalType": "bool",
          "name": "approved",
          "type": "bool"
        }
      ],
      "name": "ApprovalForAll",
      "type": "event"
    },
    {
      "anonymous": false,
      "inputs": [
        {
          "indexed": true,
          "internalType": "address",
          "name": "previousOwner",
          "type": "address"
        },
        {
          "indexed": true,
          "internalType": "address",
          "name": "newOwner",
          "type": "address"
        }
      ],
      "name": "OwnershipTransferred",
      "type": "event"
    },
    {
      "anonymous": false,
      "inputs": [
        {
          "indexed": true,
          "internalType": "address",
          "name": "from",
          "type": "address"
        },
        {
          "indexed": true,
          "internalType": "address",
          "name": "to",
          "type": "address"
        },
        {
          "indexed": true,
          "internalType": "uint256",
          "name": "tokenId",
          "type": "uint256"
        }
      ],
      "name": "Transfer",
      "type": "event"
    },
    {
      "anonymous": false,
      "inputs": [
        {
          "indexed": false,
          "internalType": "bytes32",
          "name": "newHash",
          "type": "bytes32"
        }
      ],
      "name": "UpdateMetadataHash",
      "type": "event"
    },
    {
      "inputs": [],
      "name": "BASE_EXTENSION",
      "outputs": [
        {
          "internalType": "string",
          "name": "",
          "type": "string"
        }
      ],
      "stateMutability": "view",
      "type": "function"
    },
    {
      "inputs": [],
      "name": "PRESALE_MINT_MAX_AMOUNT",
      "outputs": [
        {
          "internalType": "uint256",
          "name": "",
          "type": "uint256"
        }
      ],
      "stateMutability": "view",
      "type": "function"
    },
    {
      "inputs": [],
      "name": "PRESALE_MINT_PRICE",
      "outputs": [
        {
          "internalType": "uint256",
          "name": "",
          "type": "uint256"
        }
      ],
      "stateMutability": "view",
      "type": "function"
    },
    {
      "inputs": [],
      "name": "SALE_MINT_PRICE",
      "outputs": [
        {
          "internalType": "uint256",
          "name": "",
          "type": "uint256"
        }
      ],
      "stateMutability": "view",
      "type": "function"
    },
    {
      "inputs": [],
      "name": "TOTAL_SUPPLY",
      "outputs": [
        {
          "internalType": "uint256",
          "name": "",
          "type": "uint256"
        }
      ],
      "stateMutability": "view",
      "type": "function"
    },
    {
      "inputs": [
        {
          "internalType": "bytes32",
          "name": "",
          "type": "bytes32"
        }
      ],
      "name": "alreadyFreeMinted",
      "outputs": [
        {
          "internalType": "bool",
          "name": "",
          "type": "bool"
        }
      ],
      "stateMutability": "view",
      "type": "function"
    },
    {
      "inputs": [
        {
          "internalType": "address",
          "name": "to",
          "type": "address"
        },
        {
          "internalType": "uint256",
          "name": "tokenId",
          "type": "uint256"
        }
      ],
      "name": "approve",
      "outputs": [],
      "stateMutability": "nonpayable",
      "type": "function"
    },
    {
      "inputs": [
        {
          "internalType": "address",
          "name": "owner",
          "type": "address"
        }
      ],
      "name": "balanceOf",
      "outputs": [
        {
          "internalType": "uint256",
          "name": "",
          "type": "uint256"
        }
      ],
      "stateMutability": "view",
      "type": "function"
    },
    {
      "inputs": [],
      "name": "baseURIHash",
      "outputs": [
        {
          "internalType": "bytes32",
          "name": "",
          "type": "bytes32"
        }
      ],
      "stateMutability": "view",
      "type": "function"
    },
    {
      "inputs": [],
      "name": "baseURIHashUpdateTime",
      "outputs": [
        {
          "internalType": "uint256",
          "name": "",
          "type": "uint256"
        }
      ],
      "stateMutability": "view",
      "type": "function"
    },
    {
      "inputs": [],
      "name": "closeSale",
      "outputs": [],
      "stateMutability": "nonpayable",
      "type": "function"
    },
    {
      "inputs": [],
      "name": "currentStage",
      "outputs": [
        {
          "internalType": "enum DigitalHanamiNFT.Stage",
          "name": "",
          "type": "uint8"
        }
      ],
      "stateMutability": "view",
      "type": "function"
    },
    {
      "inputs": [
        {
          "internalType": "bytes32[]",
          "name": "_merkleProof",
          "type": "bytes32[]"
        }
      ],
      "name": "freeMint",
      "outputs": [],
      "stateMutability": "nonpayable",
      "type": "function"
    },
    {
      "inputs": [
        {
          "internalType": "uint256",
          "name": "tokenId",
          "type": "uint256"
        }
      ],
      "name": "getApproved",
      "outputs": [
        {
          "internalType": "address",
          "name": "",
          "type": "address"
        }
      ],
      "stateMutability": "view",
      "type": "function"
    },
    {
      "inputs": [
        {
          "internalType": "address",
          "name": "owner",
          "type": "address"
        },
        {
          "internalType": "address",
          "name": "operator",
          "type": "address"
        }
      ],
      "name": "isApprovedForAll",
      "outputs": [
        {
          "internalType": "bool",
          "name": "",
          "type": "bool"
        }
      ],
      "stateMutability": "view",
      "type": "function"
    },
    {
      "inputs": [
        {
          "internalType": "uint256",
          "name": "_mintAmount",
          "type": "uint256"
        },
        {
          "internalType": "bytes32[]",
          "name": "_merkleProof",
          "type": "bytes32[]"
        }
      ],
      "name": "mint",
      "outputs": [],
      "stateMutability": "payable",
      "type": "function"
    },
    {
      "inputs": [],
      "name": "name",
      "outputs": [
        {
          "internalType": "string",
          "name": "",
          "type": "string"
        }
      ],
      "stateMutability": "view",
      "type": "function"
    },
    {
      "inputs": [],
      "name": "owner",
      "outputs": [
        {
          "internalType": "address",
          "name": "",
          "type": "address"
        }
      ],
      "stateMutability": "view",
      "type": "function"
    },
    {
      "inputs": [
        {
          "internalType": "uint256",
          "name": "tokenId",
          "type": "uint256"
        }
      ],
      "name": "ownerOf",
      "outputs": [
        {
          "internalType": "address",
          "name": "",
          "type": "address"
        }
      ],
      "stateMutability": "view",
      "type": "function"
    },
    {
      "inputs": [],
      "name": "pendingFreeMint",
      "outputs": [
        {
          "internalType": "uint256",
          "name": "",
          "type": "uint256"
        }
      ],
      "stateMutability": "view",
      "type": "function"
    },
    {
      "inputs": [],
      "name": "renounceOwnership",
      "outputs": [],
      "stateMutability": "nonpayable",
      "type": "function"
    },
    {
      "inputs": [
        {
          "internalType": "bool",
          "name": "_state",
          "type": "bool"
        },
        {
          "internalType": "string",
          "name": "_newBaseURI",
          "type": "string"
        }
      ],
      "name": "reveal",
      "outputs": [],
      "stateMutability": "nonpayable",
      "type": "function"
    },
    {
      "inputs": [],
      "name": "revealed",
      "outputs": [
        {
          "internalType": "bool",
          "name": "",
          "type": "bool"
        }
      ],
      "stateMutability": "view",
      "type": "function"
    },
    {
      "inputs": [
        {
          "internalType": "address",
          "name": "from",
          "type": "address"
        },
        {
          "internalType": "address",
          "name": "to",
          "type": "address"
        },
        {
          "internalType": "uint256",
          "name": "tokenId",
          "type": "uint256"
        }
      ],
      "name": "safeTransferFrom",
      "outputs": [],
      "stateMutability": "nonpayable",
      "type": "function"
    },
    {
      "inputs": [
        {
          "internalType": "address",
          "name": "from",
          "type": "address"
        },
        {
          "internalType": "address",
          "name": "to",
          "type": "address"
        },
        {
          "internalType": "uint256",
          "name": "tokenId",
          "type": "uint256"
        },
        {
          "internalType": "bytes",
          "name": "_data",
          "type": "bytes"
        }
      ],
      "name": "safeTransferFrom",
      "outputs": [],
      "stateMutability": "nonpayable",
      "type": "function"
    },
    {
      "inputs": [
        {
          "internalType": "address",
          "name": "operator",
          "type": "address"
        },
        {
          "internalType": "bool",
          "name": "approved",
          "type": "bool"
        }
      ],
      "name": "setApprovalForAll",
      "outputs": [],
      "stateMutability": "nonpayable",
      "type": "function"
    },
    {
      "inputs": [
        {
          "internalType": "string",
          "name": "_newBaseURI",
          "type": "string"
        }
      ],
      "name": "setBaseURI",
      "outputs": [],
      "stateMutability": "nonpayable",
      "type": "function"
    },
    {
      "inputs": [
        {
          "internalType": "bytes32",
          "name": "_newBaseURIHash",
          "type": "bytes32"
        }
      ],
      "name": "setBaseURIHash",
      "outputs": [],
      "stateMutability": "nonpayable",
      "type": "function"
    },
    {
      "inputs": [
        {
          "internalType": "bytes32",
          "name": "_rootHash",
          "type": "bytes32"
        }
      ],
      "name": "setFreeMintMerkleRootHash",
      "outputs": [],
      "stateMutability": "nonpayable",
      "type": "function"
    },
    {
      "inputs": [
        {
          "internalType": "string",
          "name": "_notRevealedURI",
          "type": "string"
        }
      ],
      "name": "setNotRevealedURI",
      "outputs": [],
      "stateMutability": "nonpayable",
      "type": "function"
    },
    {
      "inputs": [
        {
          "internalType": "uint256",
          "name": "_pendingFreeMint",
          "type": "uint256"
        }
      ],
      "name": "setPendingFreeMint",
      "outputs": [],
      "stateMutability": "nonpayable",
      "type": "function"
    },
    {
      "inputs": [
        {
          "internalType": "bytes32",
          "name": "_rootHash",
          "type": "bytes32"
        }
      ],
      "name": "setPresaleMerkleRootHash",
      "outputs": [],
      "stateMutability": "nonpayable",
      "type": "function"
    },
    {
      "inputs": [
        {
          "internalType": "address",
          "name": "_newTreasuryWallet",
          "type": "address"
        }
      ],
      "name": "setTreasuryWallet",
      "outputs": [],
      "stateMutability": "nonpayable",
      "type": "function"
    },
    {
      "inputs": [],
      "name": "startFreemint",
      "outputs": [],
      "stateMutability": "nonpayable",
      "type": "function"
    },
    {
      "inputs": [],
      "name": "startPresale",
      "outputs": [],
      "stateMutability": "nonpayable",
      "type": "function"
    },
    {
      "inputs": [],
      "name": "startPublicSale",
      "outputs": [],
      "stateMutability": "nonpayable",
      "type": "function"
    },
    {
      "inputs": [
        {
          "internalType": "bytes4",
          "name": "interfaceId",
          "type": "bytes4"
        }
      ],
      "name": "supportsInterface",
      "outputs": [
        {
          "internalType": "bool",
          "name": "",
          "type": "bool"
        }
      ],
      "stateMutability": "view",
      "type": "function"
    },
    {
      "inputs": [],
      "name": "symbol",
      "outputs": [
        {
          "internalType": "string",
          "name": "",
          "type": "string"
        }
      ],
      "stateMutability": "view",
      "type": "function"
    },
    {
      "inputs": [
        {
          "internalType": "uint256",
          "name": "index",
          "type": "uint256"
        }
      ],
      "name": "tokenByIndex",
      "outputs": [
        {
          "internalType": "uint256",
          "name": "",
          "type": "uint256"
        }
      ],
      "stateMutability": "view",
      "type": "function"
    },
    {
      "inputs": [
        {
          "internalType": "address",
          "name": "owner",
          "type": "address"
        },
        {
          "internalType": "uint256",
          "name": "index",
          "type": "uint256"
        }
      ],
      "name": "tokenOfOwnerByIndex",
      "outputs": [
        {
          "internalType": "uint256",
          "name": "",
          "type": "uint256"
        }
      ],
      "stateMutability": "view",
      "type": "function"
    },
    {
      "inputs": [
        {
          "internalType": "uint256",
          "name": "tokenId",
          "type": "uint256"
        }
      ],
      "name": "tokenURI",
      "outputs": [
        {
          "internalType": "string",
          "name": "",
          "type": "string"
        }
      ],
      "stateMutability": "view",
      "type": "function"
    },
    {
      "inputs": [],
      "name": "totalSupply",
      "outputs": [
        {
          "internalType": "uint256",
          "name": "",
          "type": "uint256"
        }
      ],
      "stateMutability": "view",
      "type": "function"
    },
    {
      "inputs": [
        {
          "internalType": "address",
          "name": "from",
          "type": "address"
        },
        {
          "internalType": "address",
          "name": "to",
          "type": "address"
        },
        {
          "internalType": "uint256",
          "name": "tokenId",
          "type": "uint256"
        }
      ],
      "name": "transferFrom",
      "outputs": [],
      "stateMutability": "nonpayable",
      "type": "function"
    },
    {
      "inputs": [
        {
          "internalType": "address",
          "name": "newOwner",
          "type": "address"
        }
      ],
      "name": "transferOwnership",
      "outputs": [],
      "stateMutability": "nonpayable",
      "type": "function"
    },
    {
      "inputs": [],
      "name": "withdraw",
      "outputs": [],
      "stateMutability": "nonpayable",
      "type": "function"
    }
  ],
  "transactionHash": "0x3340497de8aa1322742a5ded4021cabc96877a0834271064213848adbeca2ea0",
  "args": [
    "Digital Hanami",
    "TDHNM",
    "0xEfe74313460403942Fd37e1D572692299a0c1B5E"
  ],
  "numDeployments": 2,
  "solcInputHash": "857b84ff5fa345e9068643fddb145db8",
  "bytecode": "0x6080604052600c805461ff00191690556000600f553480156200002157600080fd5b5060405162002fdc38038062002fdc83398101604081905262000044916200032d565b8251839083906200005d906001906020850190620001d4565b50805162000073906002906020840190620001d4565b505050620000906200008a620000a460201b60201c565b620000a8565b6200009b81620000fa565b50505062000409565b3390565b600780546001600160a01b038381166001600160a01b0319831681179093556040519116919082907f8be0079c531659141344cd1fd0a4f28419497f9722a3daafe3b4186f6b6457e090600090a35050565b6007546001600160a01b031633146200015a5760405162461bcd60e51b815260206004820181905260248201527f4f776e61626c653a2063616c6c6572206973206e6f7420746865206f776e657260448201526064015b60405180910390fd5b6001600160a01b038116620001b25760405162461bcd60e51b815260206004820152601860248201527f7a65726f2061646472657373206e6f7420616c6c6f7765640000000000000000604482015260640162000151565b601080546001600160a01b0319166001600160a01b0392909216919091179055565b828054620001e290620003b6565b90600052602060002090601f01602090048101928262000206576000855562000251565b82601f106200022157805160ff191683800117855562000251565b8280016001018555821562000251579182015b828111156200025157825182559160200191906001019062000234565b506200025f92915062000263565b5090565b5b808211156200025f576000815560010162000264565b600082601f8301126200028b578081fd5b81516001600160401b0380821115620002a857620002a8620003f3565b604051601f8301601f19908116603f01168101908282118183101715620002d357620002d3620003f3565b81604052838152602092508683858801011115620002ef578485fd5b8491505b83821015620003125785820183015181830184015290820190620002f3565b838211156200032357848385830101525b9695505050505050565b60008060006060848603121562000342578283fd5b83516001600160401b038082111562000359578485fd5b62000367878388016200027a565b945060208601519150808211156200037d578384fd5b506200038c868287016200027a565b604086015190935090506001600160a01b0381168114620003ab578182fd5b809150509250925092565b600181811c90821680620003cb57607f821691505b60208210811415620003ed57634e487b7160e01b600052602260045260246000fd5b50919050565b634e487b7160e01b600052604160045260246000fd5b612bc380620004196000396000f3fe6080604052600436106102725760003560e01c806369921df31161014f578063a22cb465116100c1578063df3fdf001161007a578063df3fdf001461071f578063e985e9c514610750578063ee55efee14610799578063ef340772146107ae578063f2c4ce1e146107c4578063f2fde38b146107e457600080fd5b8063a22cb46514610676578063a8602fea14610696578063b88d4fde146106b6578063ba41b0c6146106d6578063c2036fc9146106e9578063c87b56dd146106ff57600080fd5b80638401535f116101135780638401535f146105d857806388d15d50146105ed5780638da5cb5b1461060d578063902d55a51461062b57806395d89b4114610641578063a101ff6d1461065657600080fd5b806369921df31461053357806369e10d8c1461055357806370a0823114610583578063715018a6146105a3578063778f3f64146105b857600080fd5b80632f745c59116101e85780634f3abc84116101ac5780634f3abc841461046d5780634f6ccce71461048d57806351830227146104ad57806355f804b3146104cc5780635bf5d54c146104ec5780636352211e1461051357600080fd5b80632f745c59146103ed5780633ccfd60b1461040d5780633d779f321461042257806342842e0e146104385780634b9fe1031461045857600080fd5b8063081812fc1161023a578063081812fc1461032f578063095ea7b3146103675780630c1c972a1461038757806318160ddd1461039c57806323b872dd146103b15780632a234e57146103d157600080fd5b806301ffc9a71461027757806302d81a12146102ac57806304b89891146102d657806304c98b2b146102f857806306fdde031461030d575b600080fd5b34801561028357600080fd5b5061029761029236600461285b565b610804565b60405190151581526020015b60405180910390f35b3480156102b857600080fd5b506102c867016345785d8a000081565b6040519081526020016102a3565b3480156102e257600080fd5b506102f66102f1366004612843565b610871565b005b34801561030457600080fd5b506102f66108a9565b34801561031957600080fd5b506103226108ea565b6040516102a391906129be565b34801561033b57600080fd5b5061034f61034a366004612843565b61097c565b6040516001600160a01b0390911681526020016102a3565b34801561037357600080fd5b506102f6610382366004612790565b610a07565b34801561039357600080fd5b506102f6610b1f565b3480156103a857600080fd5b506000546102c8565b3480156103bd57600080fd5b506102f66103cc3660046126b4565b610b5d565b3480156103dd57600080fd5b506102c867011c37937e08000081565b3480156103f957600080fd5b506102c8610408366004612790565b610b68565b34801561041957600080fd5b506102f6610cc4565b34801561042e57600080fd5b506102c8600a5481565b34801561044457600080fd5b506102f66104533660046126b4565b610d23565b34801561046457600080fd5b506102f6610d3e565b34801561047957600080fd5b506102f6610488366004612843565b610d7b565b34801561049957600080fd5b506102c86104a8366004612843565b610daa565b3480156104b957600080fd5b50600c5461029790610100900460ff1681565b3480156104d857600080fd5b506102f66104e7366004612893565b610e0c565b3480156104f857600080fd5b50600c546105069060ff1681565b6040516102a39190612996565b34801561051f57600080fd5b5061034f61052e366004612843565b610eb3565b34801561053f57600080fd5b506102f661054e366004612843565b610ec5565b34801561055f57600080fd5b5061029761056e366004612843565b60116020526000908152604090205460ff1681565b34801561058f57600080fd5b506102c861059e366004612668565b610ef4565b3480156105af57600080fd5b506102f6610f85565b3480156105c457600080fd5b506102f66105d3366004612843565b610fbb565b3480156105e457600080fd5b506102c8600281565b3480156105f957600080fd5b506102f66106083660046127b9565b611024565b34801561061957600080fd5b506007546001600160a01b031661034f565b34801561063757600080fd5b506102c861271081565b34801561064d57600080fd5b5061032261124a565b34801561066257600080fd5b506102f66106713660046127f8565b611259565b34801561068257600080fd5b506102f6610691366004612767565b61129f565b3480156106a257600080fd5b506102f66106b1366004612668565b611364565b3480156106c257600080fd5b506102f66106d13660046126ef565b611406565b6102f66106e43660046128c5565b61143f565b3480156106f557600080fd5b506102c8600b5481565b34801561070b57600080fd5b5061032261071a366004612843565b6117ee565b34801561072b57600080fd5b5061032260405180604001604052806005815260200164173539b7b760d91b81525081565b34801561075c57600080fd5b5061029761076b366004612682565b6001600160a01b03918216600090815260066020908152604080832093909416825291909152205460ff1690565b3480156107a557600080fd5b506102f66119fe565b3480156107ba57600080fd5b506102c8600f5481565b3480156107d057600080fd5b506102f66107df366004612893565b611a3c565b3480156107f057600080fd5b506102f66107ff366004612668565b611a79565b60006001600160e01b031982166380ac58cd60e01b148061083557506001600160e01b03198216635b5e139f60e01b145b8061085057506001600160e01b0319821663780e9d6360e01b145b8061086b57506301ffc9a760e01b6001600160e01b03198316145b92915050565b6007546001600160a01b031633146108a45760405162461bcd60e51b815260040161089b90612a0a565b60405180910390fd5b600e55565b6007546001600160a01b031633146108d35760405162461bcd60e51b815260040161089b90612a0a565b600c80546002919060ff19166001835b0217905550565b6060600180546108f990612af4565b80601f016020809104026020016040519081016040528092919081815260200182805461092590612af4565b80156109725780601f1061094757610100808354040283529160200191610972565b820191906000526020600020905b81548152906001019060200180831161095557829003601f168201915b5050505050905090565b6000610989826000541190565b6109eb5760405162461bcd60e51b815260206004820152602d60248201527f455243373231413a20617070726f76656420717565727920666f72206e6f6e6560448201526c3c34b9ba32b73a103a37b5b2b760991b606482015260840161089b565b506000908152600560205260409020546001600160a01b031690565b6000610a1282610eb3565b9050806001600160a01b0316836001600160a01b03161415610a815760405162461bcd60e51b815260206004820152602260248201527f455243373231413a20617070726f76616c20746f2063757272656e74206f776e60448201526132b960f11b606482015260840161089b565b336001600160a01b0382161480610a9d5750610a9d813361076b565b610b0f5760405162461bcd60e51b815260206004820152603960248201527f455243373231413a20617070726f76652063616c6c6572206973206e6f74206f60448201527f776e6572206e6f7220617070726f76656420666f7220616c6c00000000000000606482015260840161089b565b610b1a838383611b11565b505050565b6007546001600160a01b03163314610b495760405162461bcd60e51b815260040161089b90612a0a565b600c80546003919060ff19166001836108e3565b610b1a838383611b6d565b6000610b7383610ef4565b8210610bcc5760405162461bcd60e51b815260206004820152602260248201527f455243373231413a206f776e657220696e646578206f7574206f6620626f756e604482015261647360f01b606482015260840161089b565b600080549080805b83811015610c64576000818152600360209081526040918290208251808401909352546001600160a01b038116808452600160a01b9091046001600160401b03169183019190915215610c2657805192505b876001600160a01b0316836001600160a01b03161415610c5b5786841415610c545750935061086b92505050565b6001909301925b50600101610bd4565b5060405162461bcd60e51b815260206004820152602e60248201527f455243373231413a20756e61626c6520746f2067657420746f6b656e206f662060448201526d0deeedccae440c4f240d2dcc8caf60931b606482015260840161089b565b6007546001600160a01b03163314610cee5760405162461bcd60e51b815260040161089b90612a0a565b60105460405147916001600160a01b03169082156108fc029083906000818181858888f19350505050610d2057600080fd5b50565b610b1a83838360405180602001604052806000815250611406565b6007546001600160a01b03163314610d685760405162461bcd60e51b815260040161089b90612a0a565b600c80546001919060ff191682806108e3565b6007546001600160a01b03163314610da55760405162461bcd60e51b815260040161089b90612a0a565b600d55565b600080548210610e085760405162461bcd60e51b815260206004820152602360248201527f455243373231413a20676c6f62616c20696e646578206f7574206f6620626f756044820152626e647360e81b606482015260840161089b565b5090565b6007546001600160a01b03163314610e365760405162461bcd60e51b815260040161089b90612a0a565b600a5481604051602001610e4a91906129be565b6040516020818303038152906040528051906020012014610e9c5760405162461bcd60e51b815260206004820152600c60248201526b0d2dcecc2d8d2c840d0c2e6d60a31b604482015260640161089b565b8051610eaf9060089060208401906124cf565b5050565b6000610ebe82611e50565b5192915050565b6007546001600160a01b03163314610eef5760405162461bcd60e51b815260040161089b90612a0a565b600f55565b60006001600160a01b038216610f605760405162461bcd60e51b815260206004820152602b60248201527f455243373231413a2062616c616e636520717565727920666f7220746865207a60448201526a65726f206164647265737360a81b606482015260840161089b565b506001600160a01b03166000908152600460205260409020546001600160801b031690565b6007546001600160a01b03163314610faf5760405162461bcd60e51b815260040161089b90612a0a565b610fb96000611f26565b565b6007546001600160a01b03163314610fe55760405162461bcd60e51b815260040161089b90612a0a565b600a81905542600b556040518181527fce7a7b18d329876448838b610822d7b07101f7d2a447f62c2e05b0939650d61b9060200160405180910390a150565b6000600c5460ff16600381111561104b57634e487b7160e01b600052602160045260246000fd5b14156110885760405162461bcd60e51b815260206004820152600c60248201526b1b9bdd081bdc195b881e595d60a21b604482015260640161089b565b6040516bffffffffffffffffffffffff193360601b16602082015260009060340160405160208183030381529060405280519060200120905061110283838080602002602001604051908101604052809392919081815260200183836020028082843760009201919091525050600e549150849050611f78565b61114e5760405162461bcd60e51b815260206004820152601c60248201527f77616c6c6574206e6f7420696e2066726565206d696e74206c69737400000000604482015260640161089b565b60008181526011602052604090205460ff16156111a35760405162461bcd60e51b8152602060048201526013602482015272185b1c9958591e48199c9959481b5a5b9d1959606a1b604482015260640161089b565b6000818152601160205260408120805460ff19166001908117909155600f8054919290916111d2908490612add565b9091555050600f54600054612710916111ea91612a92565b1061122d5760405162461bcd60e51b815260206004820152601360248201527218dbdb1b1958dd1a5bdb881cdbdb19081bdd5d606a1b604482015260640161089b565b610b1a336001604051806020016040528060008152506000611f8e565b6060600280546108f990612af4565b6007546001600160a01b031633146112835760405162461bcd60e51b815260040161089b90612a0a565b600c805461ff00191661010084151502179055610eaf81610e0c565b6001600160a01b0382163314156112f85760405162461bcd60e51b815260206004820152601a60248201527f455243373231413a20617070726f766520746f2063616c6c6572000000000000604482015260640161089b565b3360008181526006602090815260408083206001600160a01b03871680855290835292819020805460ff191686151590811790915590519081529192917f17307eab39ab6107e8899845ad3d59bd9653f200f220920489ca2b5937696c31910160405180910390a35050565b6007546001600160a01b0316331461138e5760405162461bcd60e51b815260040161089b90612a0a565b6001600160a01b0381166113e45760405162461bcd60e51b815260206004820152601860248201527f7a65726f2061646472657373206e6f7420616c6c6f7765640000000000000000604482015260640161089b565b601080546001600160a01b0319166001600160a01b0392909216919091179055565b611411848484611b6d565b61141d84848484612150565b6114395760405162461bcd60e51b815260040161089b90612a3f565b50505050565b6002600c5460ff16600381111561146657634e487b7160e01b600052602160045260246000fd5b148061149657506003600c5460ff16600381111561149457634e487b7160e01b600052602160045260246000fd5b145b6114d15760405162461bcd60e51b815260206004820152600c60248201526b1b9bdd081bdc195b881e595d60a21b604482015260640161089b565b6000831161151a5760405162461bcd60e51b8152602060048201526016602482015275185b5bdd5b9d081d1bc81b5a5b9d081a5b9d985b1a5960521b604482015260640161089b565b3233146115615760405162461bcd60e51b815260206004820152601560248201527418dbdb9d1c9858dd1cc81b9bdd08185b1b1bddd959605a1b604482015260640161089b565b6002600c5460ff16600381111561158857634e487b7160e01b600052602160045260246000fd5b141561171a5760008361159a3361225e565b6115a49190612a92565b905060028111156115f75760405162461bcd60e51b815260206004820152601c60248201527f63616e6e6f74206d696e7420616d6f756e742072657175657374656400000000604482015260640161089b565b3461160a8567011c37937e080000612abe565b111561164d5760405162461bcd60e51b8152602060048201526012602482015271696e73756666696369656e742066756e647360701b604482015260640161089b565b6040516bffffffffffffffffffffffff193360601b1660208201526000906034016040516020818303038152906040528051906020012090506116c784848080602002602001604051908101604052809392919081815260200183836020028082843760009201919091525050600d549150849050611f78565b6117135760405162461bcd60e51b815260206004820152601a60248201527f77616c6c6574206e6f7420696e2070726573616c65206c697374000000000000604482015260640161089b565b5050611770565b3461172d8467016345785d8a0000612abe565b11156117705760405162461bcd60e51b8152602060048201526012602482015271696e73756666696369656e742066756e647360701b604482015260640161089b565b61271083600f546000546117849190612a92565b61178e9190612a92565b11156117d25760405162461bcd60e51b815260206004820152601360248201527218dbdb1b1958dd1a5bdb881cdbdb19081bdd5d606a1b604482015260640161089b565b610b1a3384604051806020016040528060008152506000611f8e565b60606117fb826000541190565b61185f5760405162461bcd60e51b815260206004820152602f60248201527f4552433732314d657461646174613a2055524920717565727920666f72206e6f60448201526e3732bc34b9ba32b73a103a37b5b2b760891b606482015260840161089b565b600c54610100900460ff16611900576009805461187b90612af4565b80601f01602080910402602001604051908101604052809291908181526020018280546118a790612af4565b80156118f45780601f106118c9576101008083540402835291602001916118f4565b820191906000526020600020905b8154815290600101906020018083116118d757829003601f168201915b50505050509050919050565b60006008805461190f90612af4565b80601f016020809104026020016040519081016040528092919081815260200182805461193b90612af4565b80156119885780601f1061195d57610100808354040283529160200191611988565b820191906000526020600020905b81548152906001019060200180831161196b57829003601f168201915b5050505050905060008151116119ad57604051806020016040528060008152506119f7565b806119b7846122fc565b60405180604001604052806005815260200164173539b7b760d91b8152506040516020016119e7939291906129d1565b6040516020818303038152906040525b9392505050565b6007546001600160a01b03163314611a285760405162461bcd60e51b815260040161089b90612a0a565b600c80546000919060ff19166001836108e3565b6007546001600160a01b03163314611a665760405162461bcd60e51b815260040161089b90612a0a565b8051610eaf9060099060208401906124cf565b6007546001600160a01b03163314611aa35760405162461bcd60e51b815260040161089b90612a0a565b6001600160a01b038116611b085760405162461bcd60e51b815260206004820152602660248201527f4f776e61626c653a206e6577206f776e657220697320746865207a65726f206160448201526564647265737360d01b606482015260840161089b565b610d2081611f26565b60008281526005602052604080822080546001600160a01b0319166001600160a01b0387811691821790925591518593918516917f8c5be1e5ebec7d5bd14f71427d1e84f3dd0314c0f7b2291e5b200ac8c7c3b92591a4505050565b6000611b7882611e50565b80519091506000906001600160a01b0316336001600160a01b03161480611baf575033611ba48461097c565b6001600160a01b0316145b80611bc157508151611bc1903361076b565b905080611c2b5760405162461bcd60e51b815260206004820152603260248201527f455243373231413a207472616e736665722063616c6c6572206973206e6f74206044820152711bdddb995c881b9bdc88185c1c1c9bdd995960721b606482015260840161089b565b846001600160a01b031682600001516001600160a01b031614611c9f5760405162461bcd60e51b815260206004820152602660248201527f455243373231413a207472616e736665722066726f6d20696e636f72726563746044820152651037bbb732b960d11b606482015260840161089b565b6001600160a01b038416611d035760405162461bcd60e51b815260206004820152602560248201527f455243373231413a207472616e7366657220746f20746865207a65726f206164604482015264647265737360d81b606482015260840161089b565b611d136000848460000151611b11565b6001600160a01b03858116600090815260046020908152604080832080546001600160801b03198082166001600160801b03928316600019018316179092558986168086528386208054938416938316600190810190931693909317909255888552600390935281842080546001600160e01b031916909117600160a01b426001600160401b031602179055908601808352912054909116611e0657611dba816000541190565b15611e0657825160008281526003602090815260409091208054918601516001600160401b0316600160a01b026001600160e01b03199092166001600160a01b03909316929092171790555b5082846001600160a01b0316866001600160a01b03167fddf252ad1be2c89b69c2b068fc378daa952ba7f163c4a11628f55a4df523b3ef60405160405180910390a45b5050505050565b6040805180820190915260008082526020820152611e6f826000541190565b611ece5760405162461bcd60e51b815260206004820152602a60248201527f455243373231413a206f776e657220717565727920666f72206e6f6e657869736044820152693a32b73a103a37b5b2b760b11b606482015260840161089b565b815b6000818152600360209081526040918290208251808401909352546001600160a01b038116808452600160a01b9091046001600160401b03169183019190915215611f1c579392505050565b5060001901611ed0565b600780546001600160a01b038381166001600160a01b0319831681179093556040519116919082907f8be0079c531659141344cd1fd0a4f28419497f9722a3daafe3b4186f6b6457e090600090a35050565b600082611f858584612415565b14949350505050565b6000546001600160a01b038516611ff15760405162461bcd60e51b815260206004820152602160248201527f455243373231413a206d696e7420746f20746865207a65726f206164647265736044820152607360f81b606482015260840161089b565b8361204f5760405162461bcd60e51b815260206004820152602860248201527f455243373231413a207175616e74697479206d75737420626520677265617465604482015267072207468616e20360c41b606482015260840161089b565b6001600160a01b03851660008181526004602090815260408083208054600160801b6001600160801b031982166001600160801b039283168c01831690811782900483168c01909216021790558483526003909152812080546001600160e01b031916909217600160a01b426001600160401b0316021790915581905b858110156121475760405182906001600160a01b038916906000907fddf252ad1be2c89b69c2b068fc378daa952ba7f163c4a11628f55a4df523b3ef908290a4831561213b5761211f6000888488612150565b61213b5760405162461bcd60e51b815260040161089b90612a3f565b600191820191016120cc565b50600055611e49565b60006001600160a01b0384163b1561225257604051630a85bd0160e11b81526001600160a01b0385169063150b7a0290612194903390899088908890600401612959565b602060405180830381600087803b1580156121ae57600080fd5b505af19250505080156121de575060408051601f3d908101601f191682019092526121db91810190612877565b60015b612238573d80801561220c576040519150601f19603f3d011682016040523d82523d6000602084013e612211565b606091505b5080516122305760405162461bcd60e51b815260040161089b90612a3f565b805181602001fd5b6001600160e01b031916630a85bd0160e11b149050612256565b5060015b949350505050565b60006001600160a01b0382166122d05760405162461bcd60e51b815260206004820152603160248201527f455243373231413a206e756d626572206d696e74656420717565727920666f7260448201527020746865207a65726f206164647265737360781b606482015260840161089b565b506001600160a01b0316600090815260046020526040902054600160801b90046001600160801b031690565b6060816123205750506040805180820190915260018152600360fc1b602082015290565b8160005b811561234a578061233481612b2f565b91506123439050600a83612aaa565b9150612324565b6000816001600160401b0381111561237257634e487b7160e01b600052604160045260246000fd5b6040519080825280601f01601f19166020018201604052801561239c576020820181803683370190505b5090505b8415612256576123b1600183612add565b91506123be600a86612b4a565b6123c9906030612a92565b60f81b8183815181106123ec57634e487b7160e01b600052603260045260246000fd5b60200101906001600160f81b031916908160001a90535061240e600a86612aaa565b94506123a0565b600081815b84518110156124c757600085828151811061244557634e487b7160e01b600052603260045260246000fd5b602002602001015190508083116124875760408051602081018590529081018290526060016040516020818303038152906040528051906020012092506124b4565b60408051602081018390529081018490526060016040516020818303038152906040528051906020012092505b50806124bf81612b2f565b91505061241a565b509392505050565b8280546124db90612af4565b90600052602060002090601f0160209004810192826124fd5760008555612543565b82601f1061251657805160ff1916838001178555612543565b82800160010185558215612543579182015b82811115612543578251825591602001919060010190612528565b50610e089291505b80821115610e08576000815560010161254b565b60006001600160401b038084111561257957612579612b8a565b604051601f8501601f19908116603f011681019082821181831017156125a1576125a1612b8a565b816040528093508581528686860111156125ba57600080fd5b858560208301376000602087830101525050509392505050565b80356001600160a01b03811681146125eb57600080fd5b919050565b60008083601f840112612601578081fd5b5081356001600160401b03811115612617578182fd5b6020830191508360208260051b850101111561263257600080fd5b9250929050565b803580151581146125eb57600080fd5b600082601f830112612659578081fd5b6119f78383356020850161255f565b600060208284031215612679578081fd5b6119f7826125d4565b60008060408385031215612694578081fd5b61269d836125d4565b91506126ab602084016125d4565b90509250929050565b6000806000606084860312156126c8578081fd5b6126d1846125d4565b92506126df602085016125d4565b9150604084013590509250925092565b60008060008060808587031215612704578081fd5b61270d856125d4565b935061271b602086016125d4565b92506040850135915060608501356001600160401b0381111561273c578182fd5b8501601f8101871361274c578182fd5b61275b8782356020840161255f565b91505092959194509250565b60008060408385031215612779578182fd5b612782836125d4565b91506126ab60208401612639565b600080604083850312156127a2578182fd5b6127ab836125d4565b946020939093013593505050565b600080602083850312156127cb578182fd5b82356001600160401b038111156127e0578283fd5b6127ec858286016125f0565b90969095509350505050565b6000806040838503121561280a578182fd5b61281383612639565b915060208301356001600160401b0381111561282d578182fd5b61283985828601612649565b9150509250929050565b600060208284031215612854578081fd5b5035919050565b60006020828403121561286c578081fd5b81356119f781612ba0565b600060208284031215612888578081fd5b81516119f781612ba0565b6000602082840312156128a4578081fd5b81356001600160401b038111156128b9578182fd5b61225684828501612649565b6000806000604084860312156128d9578081fd5b8335925060208401356001600160401b038111156128f5578182fd5b612901868287016125f0565b9497909650939450505050565b60008151808452815b8181101561293357602081850181015186830182015201612917565b818111156129445782602083870101525b50601f01601f19169290920160200192915050565b6001600160a01b038581168252841660208201526040810183905260806060820181905260009061298c9083018461290e565b9695505050505050565b60208101600483106129b857634e487b7160e01b600052602160045260246000fd5b91905290565b6020815260006119f7602083018461290e565b6060815260006129e4606083018661290e565b82810360208401526129f6818661290e565b9050828103604084015261298c818561290e565b6020808252818101527f4f776e61626c653a2063616c6c6572206973206e6f7420746865206f776e6572604082015260600190565b60208082526033908201527f455243373231413a207472616e7366657220746f206e6f6e204552433732315260408201527232b1b2b4bb32b91034b6b83632b6b2b73a32b960691b606082015260800190565b60008219821115612aa557612aa5612b5e565b500190565b600082612ab957612ab9612b74565b500490565b6000816000190483118215151615612ad857612ad8612b5e565b500290565b600082821015612aef57612aef612b5e565b500390565b600181811c90821680612b0857607f821691505b60208210811415612b2957634e487b7160e01b600052602260045260246000fd5b50919050565b6000600019821415612b4357612b43612b5e565b5060010190565b600082612b5957612b59612b74565b500690565b634e487b7160e01b600052601160045260246000fd5b634e487b7160e01b600052601260045260246000fd5b634e487b7160e01b600052604160045260246000fd5b6001600160e01b031981168114610d2057600080fdfea164736f6c6343000804000a",
  "devdoc": {
    "kind": "dev",
    "methods": {
      "approve(address,uint256)": {
        "details": "See {IERC721-approve}."
      },
      "balanceOf(address)": {
        "details": "See {IERC721-balanceOf}."
      },
      "getApproved(uint256)": {
        "details": "See {IERC721-getApproved}."
      },
      "isApprovedForAll(address,address)": {
        "details": "See {IERC721-isApprovedForAll}."
      },
      "name()": {
        "details": "See {IERC721Metadata-name}."
      },
      "owner()": {
        "details": "Returns the address of the current owner."
      },
      "ownerOf(uint256)": {
        "details": "See {IERC721-ownerOf}."
      },
      "renounceOwnership()": {
        "details": "Leaves the contract without owner. It will not be possible to call `onlyOwner` functions anymore. Can only be called by the current owner. NOTE: Renouncing ownership will leave the contract without an owner, thereby removing any functionality that is only available to the owner."
      },
      "safeTransferFrom(address,address,uint256)": {
        "details": "See {IERC721-safeTransferFrom}."
      },
      "safeTransferFrom(address,address,uint256,bytes)": {
        "details": "See {IERC721-safeTransferFrom}."
      },
      "setApprovalForAll(address,bool)": {
        "details": "See {IERC721-setApprovalForAll}."
      },
      "supportsInterface(bytes4)": {
        "details": "See {IERC165-supportsInterface}."
      },
      "symbol()": {
        "details": "See {IERC721Metadata-symbol}."
      },
      "tokenByIndex(uint256)": {
        "details": "See {IERC721Enumerable-tokenByIndex}."
      },
      "tokenOfOwnerByIndex(address,uint256)": {
        "details": "See {IERC721Enumerable-tokenOfOwnerByIndex}. This read function is O(totalSupply). If calling from a separate contract, be sure to test gas first. It may also degrade with extremely large collection sizes (e.g >> 10000), test for your use case."
      },
      "tokenURI(uint256)": {
        "details": "See {IERC721Metadata-tokenURI}."
      },
      "totalSupply()": {
        "details": "See {IERC721Enumerable-totalSupply}."
      },
      "transferFrom(address,address,uint256)": {
        "details": "See {IERC721-transferFrom}."
      },
      "transferOwnership(address)": {
        "details": "Transfers ownership of the contract to a new account (`newOwner`). Can only be called by the current owner."
      }
    },
    "version": 1
  },
  "userdoc": {
    "kind": "user",
    "methods": {},
    "version": 1
  },
  "storageLayout": {
    "storage": [
      {
        "astId": 2340,
        "contract": "contracts/DigitalHanamiNFT.sol:DigitalHanamiNFT",
        "label": "currentIndex",
        "offset": 0,
        "slot": "0",
        "type": "t_uint256"
      },
      {
        "astId": 2342,
        "contract": "contracts/DigitalHanamiNFT.sol:DigitalHanamiNFT",
        "label": "_name",
        "offset": 0,
        "slot": "1",
        "type": "t_string_storage"
      },
      {
        "astId": 2344,
        "contract": "contracts/DigitalHanamiNFT.sol:DigitalHanamiNFT",
        "label": "_symbol",
        "offset": 0,
        "slot": "2",
        "type": "t_string_storage"
      },
      {
        "astId": 2349,
        "contract": "contracts/DigitalHanamiNFT.sol:DigitalHanamiNFT",
        "label": "_ownerships",
        "offset": 0,
        "slot": "3",
        "type": "t_mapping(t_uint256,t_struct(TokenOwnership)2333_storage)"
      },
      {
        "astId": 2354,
        "contract": "contracts/DigitalHanamiNFT.sol:DigitalHanamiNFT",
        "label": "_addressData",
        "offset": 0,
        "slot": "4",
        "type": "t_mapping(t_address,t_struct(AddressData)2338_storage)"
      },
      {
        "astId": 2358,
        "contract": "contracts/DigitalHanamiNFT.sol:DigitalHanamiNFT",
        "label": "_tokenApprovals",
        "offset": 0,
        "slot": "5",
        "type": "t_mapping(t_uint256,t_address)"
      },
      {
        "astId": 2364,
        "contract": "contracts/DigitalHanamiNFT.sol:DigitalHanamiNFT",
        "label": "_operatorApprovals",
        "offset": 0,
        "slot": "6",
        "type": "t_mapping(t_address,t_mapping(t_address,t_bool))"
      },
      {
        "astId": 7,
        "contract": "contracts/DigitalHanamiNFT.sol:DigitalHanamiNFT",
        "label": "_owner",
        "offset": 0,
        "slot": "7",
        "type": "t_address"
      },
      {
        "astId": 1792,
        "contract": "contracts/DigitalHanamiNFT.sol:DigitalHanamiNFT",
        "label": "baseURI",
        "offset": 0,
        "slot": "8",
        "type": "t_string_storage"
      },
      {
        "astId": 1794,
        "contract": "contracts/DigitalHanamiNFT.sol:DigitalHanamiNFT",
        "label": "notRevealedUri",
        "offset": 0,
        "slot": "9",
        "type": "t_string_storage"
      },
      {
        "astId": 1799,
        "contract": "contracts/DigitalHanamiNFT.sol:DigitalHanamiNFT",
        "label": "baseURIHash",
        "offset": 0,
        "slot": "10",
        "type": "t_bytes32"
      },
      {
        "astId": 1801,
        "contract": "contracts/DigitalHanamiNFT.sol:DigitalHanamiNFT",
        "label": "baseURIHashUpdateTime",
        "offset": 0,
        "slot": "11",
        "type": "t_uint256"
      },
      {
        "astId": 1804,
        "contract": "contracts/DigitalHanamiNFT.sol:DigitalHanamiNFT",
        "label": "currentStage",
        "offset": 0,
        "slot": "12",
        "type": "t_enum(Stage)1790"
      },
      {
        "astId": 1819,
        "contract": "contracts/DigitalHanamiNFT.sol:DigitalHanamiNFT",
        "label": "revealed",
        "offset": 1,
        "slot": "12",
        "type": "t_bool"
      },
      {
        "astId": 1821,
        "contract": "contracts/DigitalHanamiNFT.sol:DigitalHanamiNFT",
        "label": "presaleMerkleRootHash",
        "offset": 0,
        "slot": "13",
        "type": "t_bytes32"
      },
      {
        "astId": 1823,
        "contract": "contracts/DigitalHanamiNFT.sol:DigitalHanamiNFT",
        "label": "freeMintMerkleRootHash",
        "offset": 0,
        "slot": "14",
        "type": "t_bytes32"
      },
      {
        "astId": 1826,
        "contract": "contracts/DigitalHanamiNFT.sol:DigitalHanamiNFT",
        "label": "pendingFreeMint",
        "offset": 0,
        "slot": "15",
        "type": "t_uint256"
      },
      {
        "astId": 1828,
        "contract": "contracts/DigitalHanamiNFT.sol:DigitalHanamiNFT",
        "label": "treasuryWallet",
        "offset": 0,
        "slot": "16",
        "type": "t_address"
      },
      {
        "astId": 1832,
        "contract": "contracts/DigitalHanamiNFT.sol:DigitalHanamiNFT",
        "label": "alreadyFreeMinted",
        "offset": 0,
        "slot": "17",
        "type": "t_mapping(t_bytes32,t_bool)"
      }
    ],
    "types": {
      "t_address": {
        "encoding": "inplace",
        "label": "address",
        "numberOfBytes": "20"
      },
      "t_bool": {
        "encoding": "inplace",
        "label": "bool",
        "numberOfBytes": "1"
      },
      "t_bytes32": {
        "encoding": "inplace",
        "label": "bytes32",
        "numberOfBytes": "32"
      },
      "t_enum(Stage)1790": {
        "encoding": "inplace",
        "label": "enum DigitalHanamiNFT.Stage",
        "numberOfBytes": "1"
      },
      "t_mapping(t_address,t_bool)": {
        "encoding": "mapping",
        "key": "t_address",
        "label": "mapping(address => bool)",
        "numberOfBytes": "32",
        "value": "t_bool"
      },
      "t_mapping(t_address,t_mapping(t_address,t_bool))": {
        "encoding": "mapping",
        "key": "t_address",
        "label": "mapping(address => mapping(address => bool))",
        "numberOfBytes": "32",
        "value": "t_mapping(t_address,t_bool)"
      },
      "t_mapping(t_address,t_struct(AddressData)2338_storage)": {
        "encoding": "mapping",
        "key": "t_address",
        "label": "mapping(address => struct ERC721A.AddressData)",
        "numberOfBytes": "32",
        "value": "t_struct(AddressData)2338_storage"
      },
      "t_mapping(t_bytes32,t_bool)": {
        "encoding": "mapping",
        "key": "t_bytes32",
        "label": "mapping(bytes32 => bool)",
        "numberOfBytes": "32",
        "value": "t_bool"
      },
      "t_mapping(t_uint256,t_address)": {
        "encoding": "mapping",
        "key": "t_uint256",
        "label": "mapping(uint256 => address)",
        "numberOfBytes": "32",
        "value": "t_address"
      },
      "t_mapping(t_uint256,t_struct(TokenOwnership)2333_storage)": {
        "encoding": "mapping",
        "key": "t_uint256",
        "label": "mapping(uint256 => struct ERC721A.TokenOwnership)",
        "numberOfBytes": "32",
        "value": "t_struct(TokenOwnership)2333_storage"
      },
      "t_string_storage": {
        "encoding": "bytes",
        "label": "string",
        "numberOfBytes": "32"
      },
      "t_struct(AddressData)2338_storage": {
        "encoding": "inplace",
        "label": "struct ERC721A.AddressData",
        "members": [
          {
            "astId": 2335,
            "contract": "contracts/DigitalHanamiNFT.sol:DigitalHanamiNFT",
            "label": "balance",
            "offset": 0,
            "slot": "0",
            "type": "t_uint128"
          },
          {
            "astId": 2337,
            "contract": "contracts/DigitalHanamiNFT.sol:DigitalHanamiNFT",
            "label": "numberMinted",
            "offset": 16,
            "slot": "0",
            "type": "t_uint128"
          }
        ],
        "numberOfBytes": "32"
      },
      "t_struct(TokenOwnership)2333_storage": {
        "encoding": "inplace",
        "label": "struct ERC721A.TokenOwnership",
        "members": [
          {
            "astId": 2330,
            "contract": "contracts/DigitalHanamiNFT.sol:DigitalHanamiNFT",
            "label": "addr",
            "offset": 0,
            "slot": "0",
            "type": "t_address"
          },
          {
            "astId": 2332,
            "contract": "contracts/DigitalHanamiNFT.sol:DigitalHanamiNFT",
            "label": "startTimestamp",
            "offset": 20,
            "slot": "0",
            "type": "t_uint64"
          }
        ],
        "numberOfBytes": "32"
      },
      "t_uint128": {
        "encoding": "inplace",
        "label": "uint128",
        "numberOfBytes": "16"
      },
      "t_uint256": {
        "encoding": "inplace",
        "label": "uint256",
        "numberOfBytes": "32"
      },
      "t_uint64": {
        "encoding": "inplace",
        "label": "uint64",
        "numberOfBytes": "8"
      }
    }
  }
}