{
  "address": "0xa6Be760C3d98b11E80Df41cbDaB8e72C2659e0C0",
  "abi": [
    {
      "inputs": [
        {
          "internalType": "string",
          "name": "_name",
          "type": "string"
        },
        {
          "internalType": "string",
          "name": "_symbol",
          "type": "string"
        },
        {
          "internalType": "address",
          "name": "_treasuryWallet",
          "type": "address"
        }
      ],
      "stateMutability": "nonpayable",
      "type": "constructor"
    },
    {
      "anonymous": false,
      "inputs": [
        {
          "indexed": true,
          "internalType": "address",
          "name": "owner",
          "type": "address"
        },
        {
          "indexed": true,
          "internalType": "address",
          "name": "approved",
          "type": "address"
        },
        {
          "indexed": true,
          "internalType": "uint256",
          "name": "tokenId",
          "type": "uint256"
        }
      ],
      "name": "Approval",
      "type": "event"
    },
    {
      "anonymous": false,
      "inputs": [
        {
          "indexed": true,
          "internalType": "address",
          "name": "owner",
          "type": "address"
        },
        {
          "indexed": true,
          "internalType": "address",
          "name": "operator",
          "type": "address"
        },
        {
          "indexed": false,
          "internalType": "bool",
          "name": "approved",
          "type": "bool"
        }
      ],
      "name": "ApprovalForAll",
      "type": "event"
    },
    {
      "anonymous": false,
      "inputs": [
        {
          "indexed": true,
          "internalType": "address",
          "name": "previousOwner",
          "type": "address"
        },
        {
          "indexed": true,
          "internalType": "address",
          "name": "newOwner",
          "type": "address"
        }
      ],
      "name": "OwnershipTransferred",
      "type": "event"
    },
    {
      "anonymous": false,
      "inputs": [
        {
          "indexed": true,
          "internalType": "address",
          "name": "from",
          "type": "address"
        },
        {
          "indexed": true,
          "internalType": "address",
          "name": "to",
          "type": "address"
        },
        {
          "indexed": true,
          "internalType": "uint256",
          "name": "tokenId",
          "type": "uint256"
        }
      ],
      "name": "Transfer",
      "type": "event"
    },
    {
      "anonymous": false,
      "inputs": [
        {
          "indexed": false,
          "internalType": "bytes32",
          "name": "newHash",
          "type": "bytes32"
        }
      ],
      "name": "UpdateMetadataHash",
      "type": "event"
    },
    {
      "inputs": [],
      "name": "BASE_EXTENSION",
      "outputs": [
        {
          "internalType": "string",
          "name": "",
          "type": "string"
        }
      ],
      "stateMutability": "view",
      "type": "function"
    },
    {
      "inputs": [],
      "name": "PRESALE_MINT_MAX_AMOUNT",
      "outputs": [
        {
          "internalType": "uint256",
          "name": "",
          "type": "uint256"
        }
      ],
      "stateMutability": "view",
      "type": "function"
    },
    {
      "inputs": [],
      "name": "PRESALE_MINT_PRICE",
      "outputs": [
        {
          "internalType": "uint256",
          "name": "",
          "type": "uint256"
        }
      ],
      "stateMutability": "view",
      "type": "function"
    },
    {
      "inputs": [],
      "name": "SALE_MINT_PRICE",
      "outputs": [
        {
          "internalType": "uint256",
          "name": "",
          "type": "uint256"
        }
      ],
      "stateMutability": "view",
      "type": "function"
    },
    {
      "inputs": [],
      "name": "TOTAL_SUPPLY",
      "outputs": [
        {
          "internalType": "uint256",
          "name": "",
          "type": "uint256"
        }
      ],
      "stateMutability": "view",
      "type": "function"
    },
    {
      "inputs": [
        {
          "internalType": "address",
          "name": "to",
          "type": "address"
        },
        {
          "internalType": "uint256",
          "name": "tokenId",
          "type": "uint256"
        }
      ],
      "name": "approve",
      "outputs": [],
      "stateMutability": "nonpayable",
      "type": "function"
    },
    {
      "inputs": [
        {
          "internalType": "address",
          "name": "owner",
          "type": "address"
        }
      ],
      "name": "balanceOf",
      "outputs": [
        {
          "internalType": "uint256",
          "name": "",
          "type": "uint256"
        }
      ],
      "stateMutability": "view",
      "type": "function"
    },
    {
      "inputs": [],
      "name": "baseURIHash",
      "outputs": [
        {
          "internalType": "bytes32",
          "name": "",
          "type": "bytes32"
        }
      ],
      "stateMutability": "view",
      "type": "function"
    },
    {
      "inputs": [],
      "name": "baseURIHashUpdateTime",
      "outputs": [
        {
          "internalType": "uint256",
          "name": "",
          "type": "uint256"
        }
      ],
      "stateMutability": "view",
      "type": "function"
    },
    {
      "inputs": [
        {
          "internalType": "uint256",
          "name": "tokenId",
          "type": "uint256"
        }
      ],
      "name": "getApproved",
      "outputs": [
        {
          "internalType": "address",
          "name": "",
          "type": "address"
        }
      ],
      "stateMutability": "view",
      "type": "function"
    },
    {
      "inputs": [
        {
          "internalType": "address",
          "name": "owner",
          "type": "address"
        },
        {
          "internalType": "address",
          "name": "operator",
          "type": "address"
        }
      ],
      "name": "isApprovedForAll",
      "outputs": [
        {
          "internalType": "bool",
          "name": "",
          "type": "bool"
        }
      ],
      "stateMutability": "view",
      "type": "function"
    },
    {
      "inputs": [],
      "name": "isPresaleLive",
      "outputs": [
        {
          "internalType": "bool",
          "name": "",
          "type": "bool"
        }
      ],
      "stateMutability": "view",
      "type": "function"
    },
    {
      "inputs": [],
      "name": "isPublicSaleLive",
      "outputs": [
        {
          "internalType": "bool",
          "name": "",
          "type": "bool"
        }
      ],
      "stateMutability": "view",
      "type": "function"
    },
    {
      "inputs": [
        {
          "internalType": "uint256",
          "name": "_mintAmount",
          "type": "uint256"
        },
        {
          "internalType": "bytes32[]",
          "name": "_merkleProof",
          "type": "bytes32[]"
        }
      ],
      "name": "mintPresale",
      "outputs": [],
      "stateMutability": "payable",
      "type": "function"
    },
    {
      "inputs": [
        {
          "internalType": "uint256",
          "name": "_mintAmount",
          "type": "uint256"
        }
      ],
      "name": "mintPublicSale",
      "outputs": [],
      "stateMutability": "payable",
      "type": "function"
    },
    {
      "inputs": [],
      "name": "name",
      "outputs": [
        {
          "internalType": "string",
          "name": "",
          "type": "string"
        }
      ],
      "stateMutability": "view",
      "type": "function"
    },
    {
      "inputs": [],
      "name": "owner",
      "outputs": [
        {
          "internalType": "address",
          "name": "",
          "type": "address"
        }
      ],
      "stateMutability": "view",
      "type": "function"
    },
    {
      "inputs": [
        {
          "internalType": "uint256",
          "name": "tokenId",
          "type": "uint256"
        }
      ],
      "name": "ownerOf",
      "outputs": [
        {
          "internalType": "address",
          "name": "",
          "type": "address"
        }
      ],
      "stateMutability": "view",
      "type": "function"
    },
    {
      "inputs": [],
      "name": "renounceOwnership",
      "outputs": [],
      "stateMutability": "nonpayable",
      "type": "function"
    },
    {
      "inputs": [
        {
          "internalType": "bool",
          "name": "_state",
          "type": "bool"
        },
        {
          "internalType": "string",
          "name": "_newBaseURI",
          "type": "string"
        }
      ],
      "name": "reveal",
      "outputs": [],
      "stateMutability": "nonpayable",
      "type": "function"
    },
    {
      "inputs": [],
      "name": "revealed",
      "outputs": [
        {
          "internalType": "bool",
          "name": "",
          "type": "bool"
        }
      ],
      "stateMutability": "view",
      "type": "function"
    },
    {
      "inputs": [
        {
          "internalType": "address",
          "name": "from",
          "type": "address"
        },
        {
          "internalType": "address",
          "name": "to",
          "type": "address"
        },
        {
          "internalType": "uint256",
          "name": "tokenId",
          "type": "uint256"
        }
      ],
      "name": "safeTransferFrom",
      "outputs": [],
      "stateMutability": "nonpayable",
      "type": "function"
    },
    {
      "inputs": [
        {
          "internalType": "address",
          "name": "from",
          "type": "address"
        },
        {
          "internalType": "address",
          "name": "to",
          "type": "address"
        },
        {
          "internalType": "uint256",
          "name": "tokenId",
          "type": "uint256"
        },
        {
          "internalType": "bytes",
          "name": "_data",
          "type": "bytes"
        }
      ],
      "name": "safeTransferFrom",
      "outputs": [],
      "stateMutability": "nonpayable",
      "type": "function"
    },
    {
      "inputs": [
        {
          "internalType": "address",
          "name": "operator",
          "type": "address"
        },
        {
          "internalType": "bool",
          "name": "approved",
          "type": "bool"
        }
      ],
      "name": "setApprovalForAll",
      "outputs": [],
      "stateMutability": "nonpayable",
      "type": "function"
    },
    {
      "inputs": [
        {
          "internalType": "string",
          "name": "_newBaseURI",
          "type": "string"
        }
      ],
      "name": "setBaseURI",
      "outputs": [],
      "stateMutability": "nonpayable",
      "type": "function"
    },
    {
      "inputs": [
        {
          "internalType": "bytes32",
          "name": "_newBaseURIHash",
          "type": "bytes32"
        }
      ],
      "name": "setBaseURIHash",
      "outputs": [],
      "stateMutability": "nonpayable",
      "type": "function"
    },
    {
      "inputs": [
        {
          "internalType": "bytes32",
          "name": "_rootHash",
          "type": "bytes32"
        }
      ],
      "name": "setMerkleRootHash",
      "outputs": [],
      "stateMutability": "nonpayable",
      "type": "function"
    },
    {
      "inputs": [
        {
          "internalType": "string",
          "name": "_notRevealedURI",
          "type": "string"
        }
      ],
      "name": "setNotRevealedURI",
      "outputs": [],
      "stateMutability": "nonpayable",
      "type": "function"
    },
    {
      "inputs": [
        {
          "internalType": "bool",
          "name": "_state",
          "type": "bool"
        }
      ],
      "name": "setPresaleStatus",
      "outputs": [],
      "stateMutability": "nonpayable",
      "type": "function"
    },
    {
      "inputs": [
        {
          "internalType": "bool",
          "name": "_state",
          "type": "bool"
        }
      ],
      "name": "setPublicSaleStatus",
      "outputs": [],
      "stateMutability": "nonpayable",
      "type": "function"
    },
    {
      "inputs": [
        {
          "internalType": "address",
          "name": "_newTreasuryWallet",
          "type": "address"
        }
      ],
      "name": "setTreasuryWallet",
      "outputs": [],
      "stateMutability": "nonpayable",
      "type": "function"
    },
    {
      "inputs": [
        {
          "internalType": "bytes4",
          "name": "interfaceId",
          "type": "bytes4"
        }
      ],
      "name": "supportsInterface",
      "outputs": [
        {
          "internalType": "bool",
          "name": "",
          "type": "bool"
        }
      ],
      "stateMutability": "view",
      "type": "function"
    },
    {
      "inputs": [],
      "name": "symbol",
      "outputs": [
        {
          "internalType": "string",
          "name": "",
          "type": "string"
        }
      ],
      "stateMutability": "view",
      "type": "function"
    },
    {
      "inputs": [
        {
          "internalType": "uint256",
          "name": "index",
          "type": "uint256"
        }
      ],
      "name": "tokenByIndex",
      "outputs": [
        {
          "internalType": "uint256",
          "name": "",
          "type": "uint256"
        }
      ],
      "stateMutability": "view",
      "type": "function"
    },
    {
      "inputs": [
        {
          "internalType": "address",
          "name": "owner",
          "type": "address"
        },
        {
          "internalType": "uint256",
          "name": "index",
          "type": "uint256"
        }
      ],
      "name": "tokenOfOwnerByIndex",
      "outputs": [
        {
          "internalType": "uint256",
          "name": "",
          "type": "uint256"
        }
      ],
      "stateMutability": "view",
      "type": "function"
    },
    {
      "inputs": [
        {
          "internalType": "uint256",
          "name": "tokenId",
          "type": "uint256"
        }
      ],
      "name": "tokenURI",
      "outputs": [
        {
          "internalType": "string",
          "name": "",
          "type": "string"
        }
      ],
      "stateMutability": "view",
      "type": "function"
    },
    {
      "inputs": [],
      "name": "totalSupply",
      "outputs": [
        {
          "internalType": "uint256",
          "name": "",
          "type": "uint256"
        }
      ],
      "stateMutability": "view",
      "type": "function"
    },
    {
      "inputs": [
        {
          "internalType": "address",
          "name": "from",
          "type": "address"
        },
        {
          "internalType": "address",
          "name": "to",
          "type": "address"
        },
        {
          "internalType": "uint256",
          "name": "tokenId",
          "type": "uint256"
        }
      ],
      "name": "transferFrom",
      "outputs": [],
      "stateMutability": "nonpayable",
      "type": "function"
    },
    {
      "inputs": [
        {
          "internalType": "address",
          "name": "newOwner",
          "type": "address"
        }
      ],
      "name": "transferOwnership",
      "outputs": [],
      "stateMutability": "nonpayable",
      "type": "function"
    },
    {
      "inputs": [],
      "name": "withdraw",
      "outputs": [],
      "stateMutability": "nonpayable",
      "type": "function"
    }
  ],
  "transactionHash": "0x048d92909b28cc0f77018ba3c4f84db9c804f6d395e295051180a34a4d1bf29b",
  "args": [
    "Digital Hanami",
    "TDHNM",
    "0xEfe74313460403942Fd37e1D572692299a0c1B5E"
  ],
  "numDeployments": 1,
  "solcInputHash": "fe6f2f3cfdeede2902f0bd2e45ddf91c",
  "bytecode": "0x6080604052600c805462ffffff191690553480156200001d57600080fd5b5060405162002c7538038062002c75833981016040819052620000409162000329565b82518390839062000059906001906020850190620001d0565b5080516200006f906002906020840190620001d0565b5050506200008c62000086620000a060201b60201c565b620000a4565b6200009781620000f6565b50505062000405565b3390565b600780546001600160a01b038381166001600160a01b0319831681179093556040519116919082907f8be0079c531659141344cd1fd0a4f28419497f9722a3daafe3b4186f6b6457e090600090a35050565b6007546001600160a01b03163314620001565760405162461bcd60e51b815260206004820181905260248201527f4f776e61626c653a2063616c6c6572206973206e6f7420746865206f776e657260448201526064015b60405180910390fd5b6001600160a01b038116620001ae5760405162461bcd60e51b815260206004820152601860248201527f7a65726f2061646472657373206e6f7420616c6c6f776564000000000000000060448201526064016200014d565b600e80546001600160a01b0319166001600160a01b0392909216919091179055565b828054620001de90620003b2565b90600052602060002090601f0160209004810192826200020257600085556200024d565b82601f106200021d57805160ff19168380011785556200024d565b828001600101855582156200024d579182015b828111156200024d57825182559160200191906001019062000230565b506200025b9291506200025f565b5090565b5b808211156200025b576000815560010162000260565b600082601f83011262000287578081fd5b81516001600160401b0380821115620002a457620002a4620003ef565b604051601f8301601f19908116603f01168101908282118183101715620002cf57620002cf620003ef565b81604052838152602092508683858801011115620002eb578485fd5b8491505b838210156200030e5785820183015181830184015290820190620002ef565b838211156200031f57848385830101525b9695505050505050565b6000806000606084860312156200033e578283fd5b83516001600160401b038082111562000355578485fd5b620003638783880162000276565b9450602086015191508082111562000379578384fd5b50620003888682870162000276565b604086015190935090506001600160a01b0381168114620003a7578182fd5b809150509250925092565b600181811c90821680620003c757607f821691505b60208210811415620003e957634e487b7160e01b600052602260045260246000fd5b50919050565b634e487b7160e01b600052604160045260246000fd5b61286080620004156000396000f3fe60806040526004361061023b5760003560e01c8063715018a61161012e578063a22cb465116100ab578063c87b56dd1161006f578063c87b56dd1461065f578063df3fdf001461067f578063e985e9c5146106b0578063f2c4ce1e146106f9578063f2fde38b1461071957600080fd5b8063a22cb465146105c9578063a8602fea146105e9578063b423fe6714610609578063b88d4fde14610629578063c2036fc91461064957600080fd5b80638da5cb5b116100f25780638da5cb5b14610540578063902d55a51461055e57806395d89b41146105745780639ba411b114610589578063a101ff6d146105a957600080fd5b8063715018a6146104b7578063778f3f64146104cc5780638401535f146104ec57806386233071146105015780638895283f1461052057600080fd5b80632f745c59116101bc5780635183022711610180578063518302271461042457806355f804b3146104445780635a5e5d58146104645780636352211e1461047757806370a082311461049757600080fd5b80632f745c59146103995780633ccfd60b146103b95780633d779f32146103ce57806342842e0e146103e45780634f6ccce71461040457600080fd5b80630c0a6b5e116102035780630c0a6b5e1461031b57806318160ddd1461032e57806323b872dd146103435780632a234e57146103635780632c9ad1fb1461037f57600080fd5b806301ffc9a71461024057806302d81a121461027557806306fdde031461029f578063081812fc146102c1578063095ea7b3146102f9575b600080fd5b34801561024c57600080fd5b5061026061025b3660046124ee565b610739565b60405190151581526020015b60405180910390f35b34801561028157600080fd5b5061029167016345785d8a000081565b60405190815260200161026c565b3480156102ab57600080fd5b506102b46107a6565b60405161026c919061265b565b3480156102cd57600080fd5b506102e16102dc3660046124d6565b610838565b6040516001600160a01b03909116815260200161026c565b34801561030557600080fd5b50610319610314366004612447565b6108c8565b005b610319610329366004612559565b6109e0565b34801561033a57600080fd5b50600054610291565b34801561034f57600080fd5b5061031961035e36600461236a565b610ca3565b34801561036f57600080fd5b5061029167011c37937e08000081565b34801561038b57600080fd5b50600c546102609060ff1681565b3480156103a557600080fd5b506102916103b4366004612447565b610cae565b3480156103c557600080fd5b50610319610e0b565b3480156103da57600080fd5b50610291600a5481565b3480156103f057600080fd5b506103196103ff36600461236a565b610e6a565b34801561041057600080fd5b5061029161041f3660046124d6565b610e85565b34801561043057600080fd5b50600c546102609062010000900460ff1681565b34801561045057600080fd5b5061031961045f366004612526565b610ee7565b6103196104723660046124d6565b610f8e565b34801561048357600080fd5b506102e16104923660046124d6565b61113b565b3480156104a357600080fd5b506102916104b236600461231e565b61114d565b3480156104c357600080fd5b506103196111de565b3480156104d857600080fd5b506103196104e73660046124d6565b611214565b3480156104f857600080fd5b50610291600281565b34801561050d57600080fd5b50600c5461026090610100900460ff1681565b34801561052c57600080fd5b5061031961053b366004612470565b61127d565b34801561054c57600080fd5b506007546001600160a01b03166102e1565b34801561056a57600080fd5b5061029161271081565b34801561058057600080fd5b506102b46112ba565b34801561059557600080fd5b506103196105a43660046124d6565b6112c9565b3480156105b557600080fd5b506103196105c436600461248a565b6112f8565b3480156105d557600080fd5b506103196105e436600461241e565b611340565b3480156105f557600080fd5b5061031961060436600461231e565b611405565b34801561061557600080fd5b50610319610624366004612470565b6114a7565b34801561063557600080fd5b506103196106443660046123a5565b6114eb565b34801561065557600080fd5b50610291600b5481565b34801561066b57600080fd5b506102b461067a3660046124d6565b611524565b34801561068b57600080fd5b506102b460405180604001604052806005815260200164173539b7b760d91b81525081565b3480156106bc57600080fd5b506102606106cb366004612338565b6001600160a01b03918216600090815260066020908152604080832093909416825291909152205460ff1690565b34801561070557600080fd5b50610319610714366004612526565b611735565b34801561072557600080fd5b5061031961073436600461231e565b611772565b60006001600160e01b031982166380ac58cd60e01b148061076a57506001600160e01b03198216635b5e139f60e01b145b8061078557506001600160e01b0319821663780e9d6360e01b145b806107a057506301ffc9a760e01b6001600160e01b03198316145b92915050565b6060600180546107b590612791565b80601f01602080910402602001604051908101604052809291908181526020018280546107e190612791565b801561082e5780601f106108035761010080835404028352916020019161082e565b820191906000526020600020905b81548152906001019060200180831161081157829003601f168201915b5050505050905090565b6000610845826000541190565b6108ac5760405162461bcd60e51b815260206004820152602d60248201527f455243373231413a20617070726f76656420717565727920666f72206e6f6e6560448201526c3c34b9ba32b73a103a37b5b2b760991b60648201526084015b60405180910390fd5b506000908152600560205260409020546001600160a01b031690565b60006108d38261113b565b9050806001600160a01b0316836001600160a01b031614156109425760405162461bcd60e51b815260206004820152602260248201527f455243373231413a20617070726f76616c20746f2063757272656e74206f776e60448201526132b960f11b60648201526084016108a3565b336001600160a01b038216148061095e575061095e81336106cb565b6109d05760405162461bcd60e51b815260206004820152603960248201527f455243373231413a20617070726f76652063616c6c6572206973206e6f74206f60448201527f776e6572206e6f7220617070726f76656420666f7220616c6c0000000000000060648201526084016108a3565b6109db83838361180a565b505050565b600c5460ff16610a295760405162461bcd60e51b81526020600482015260146024820152731c1c995cd85b19481b9bdd081bdc195b881e595d60621b60448201526064016108a3565b60008311610a725760405162461bcd60e51b8152602060048201526016602482015275185b5bdd5b9d081d1bc81b5a5b9d081a5b9d985b1a5960521b60448201526064016108a3565b323314610ab95760405162461bcd60e51b815260206004820152601560248201527418dbdb9d1c9858dd1cc81b9bdd08185b1b1bddd959605a1b60448201526064016108a3565b600083610ac533611866565b610acf919061272f565b90506002811115610b225760405162461bcd60e51b815260206004820152601c60248201527f63616e6e6f74206d696e7420616d6f756e74207265717565737465640000000060448201526064016108a3565b34610b358567011c37937e08000061275b565b1115610b785760405162461bcd60e51b8152602060048201526012602482015271696e73756666696369656e742066756e647360701b60448201526064016108a3565b6040805133602082015260009101604051602081830303815290604052805190602001209050610bdf84848080602002602001604051908101604052809392919081815260200183836020028082843760009201919091525050600d549150849050611904565b610c2b5760405162461bcd60e51b815260206004820152601a60248201527f77616c6c6574206e6f7420696e2070726573616c65206c69737400000000000060448201526064016108a3565b600054612710610c3b878361272f565b1115610c7f5760405162461bcd60e51b815260206004820152601360248201527218dbdb1b1958dd1a5bdb881cdbdb19081bdd5d606a1b60448201526064016108a3565b610c9b338760405180602001604052806000815250600061191a565b505050505050565b6109db838383611ae0565b6000610cb98361114d565b8210610d125760405162461bcd60e51b815260206004820152602260248201527f455243373231413a206f776e657220696e646578206f7574206f6620626f756e604482015261647360f01b60648201526084016108a3565b600080549080805b83811015610dab576000818152600360209081526040918290208251808401909352546001600160a01b038116808452600160a01b90910467ffffffffffffffff169183019190915215610d6d57805192505b876001600160a01b0316836001600160a01b03161415610da25786841415610d9b575093506107a092505050565b6001909301925b50600101610d1a565b5060405162461bcd60e51b815260206004820152602e60248201527f455243373231413a20756e61626c6520746f2067657420746f6b656e206f662060448201526d0deeedccae440c4f240d2dcc8caf60931b60648201526084016108a3565b6007546001600160a01b03163314610e355760405162461bcd60e51b81526004016108a3906126a7565b600e5460405147916001600160a01b03169082156108fc029083906000818181858888f19350505050610e6757600080fd5b50565b6109db838383604051806020016040528060008152506114eb565b600080548210610ee35760405162461bcd60e51b815260206004820152602360248201527f455243373231413a20676c6f62616c20696e646578206f7574206f6620626f756044820152626e647360e81b60648201526084016108a3565b5090565b6007546001600160a01b03163314610f115760405162461bcd60e51b81526004016108a3906126a7565b600a5481604051602001610f25919061265b565b6040516020818303038152906040528051906020012014610f775760405162461bcd60e51b815260206004820152600c60248201526b0d2dcecc2d8d2c840d0c2e6d60a31b60448201526064016108a3565b8051610f8a9060089060208401906121cd565b5050565b600c54610100900460ff16610fe55760405162461bcd60e51b815260206004820152601860248201527f7075626c69632073616c65206e6f74206f70656e20796574000000000000000060448201526064016108a3565b6000811161102e5760405162461bcd60e51b8152602060048201526016602482015275185b5bdd5b9d081d1bc81b5a5b9d081a5b9d985b1a5960521b60448201526064016108a3565b3233146110755760405162461bcd60e51b815260206004820152601560248201527418dbdb9d1c9858dd1cc81b9bdd08185b1b1bddd959605a1b60448201526064016108a3565b346110888267011c37937e08000061275b565b11156110cb5760405162461bcd60e51b8152602060048201526012602482015271696e73756666696369656e742066756e647360701b60448201526064016108a3565b6000546127106110db838361272f565b111561111f5760405162461bcd60e51b815260206004820152601360248201527218dbdb1b1958dd1a5bdb881cdbdb19081bdd5d606a1b60448201526064016108a3565b610f8a338360405180602001604052806000815250600061191a565b600061114682611dc2565b5192915050565b60006001600160a01b0382166111b95760405162461bcd60e51b815260206004820152602b60248201527f455243373231413a2062616c616e636520717565727920666f7220746865207a60448201526a65726f206164647265737360a81b60648201526084016108a3565b506001600160a01b03166000908152600460205260409020546001600160801b031690565b6007546001600160a01b031633146112085760405162461bcd60e51b81526004016108a3906126a7565b6112126000611e99565b565b6007546001600160a01b0316331461123e5760405162461bcd60e51b81526004016108a3906126a7565b600a81905542600b556040518181527fce7a7b18d329876448838b610822d7b07101f7d2a447f62c2e05b0939650d61b9060200160405180910390a150565b6007546001600160a01b031633146112a75760405162461bcd60e51b81526004016108a3906126a7565b600c805460ff1916911515919091179055565b6060600280546107b590612791565b6007546001600160a01b031633146112f35760405162461bcd60e51b81526004016108a3906126a7565b600d55565b6007546001600160a01b031633146113225760405162461bcd60e51b81526004016108a3906126a7565b600c805462ff000019166201000084151502179055610f8a81610ee7565b6001600160a01b0382163314156113995760405162461bcd60e51b815260206004820152601a60248201527f455243373231413a20617070726f766520746f2063616c6c657200000000000060448201526064016108a3565b3360008181526006602090815260408083206001600160a01b03871680855290835292819020805460ff191686151590811790915590519081529192917f17307eab39ab6107e8899845ad3d59bd9653f200f220920489ca2b5937696c31910160405180910390a35050565b6007546001600160a01b0316331461142f5760405162461bcd60e51b81526004016108a3906126a7565b6001600160a01b0381166114855760405162461bcd60e51b815260206004820152601860248201527f7a65726f2061646472657373206e6f7420616c6c6f776564000000000000000060448201526064016108a3565b600e80546001600160a01b0319166001600160a01b0392909216919091179055565b6007546001600160a01b031633146114d15760405162461bcd60e51b81526004016108a3906126a7565b600c80549115156101000261ff0019909216919091179055565b6114f6848484611ae0565b61150284848484611eeb565b61151e5760405162461bcd60e51b81526004016108a3906126dc565b50505050565b6060611531826000541190565b6115955760405162461bcd60e51b815260206004820152602f60248201527f4552433732314d657461646174613a2055524920717565727920666f72206e6f60448201526e3732bc34b9ba32b73a103a37b5b2b760891b60648201526084016108a3565b600c5462010000900460ff1661163757600980546115b290612791565b80601f01602080910402602001604051908101604052809291908181526020018280546115de90612791565b801561162b5780601f106116005761010080835404028352916020019161162b565b820191906000526020600020905b81548152906001019060200180831161160e57829003601f168201915b50505050509050919050565b60006008805461164690612791565b80601f016020809104026020016040519081016040528092919081815260200182805461167290612791565b80156116bf5780601f10611694576101008083540402835291602001916116bf565b820191906000526020600020905b8154815290600101906020018083116116a257829003601f168201915b5050505050905060008151116116e4576040518060200160405280600081525061172e565b806116ee84611ff9565b60405180604001604052806005815260200164173539b7b760d91b81525060405160200161171e9392919061266e565b6040516020818303038152906040525b9392505050565b6007546001600160a01b0316331461175f5760405162461bcd60e51b81526004016108a3906126a7565b8051610f8a9060099060208401906121cd565b6007546001600160a01b0316331461179c5760405162461bcd60e51b81526004016108a3906126a7565b6001600160a01b0381166118015760405162461bcd60e51b815260206004820152602660248201527f4f776e61626c653a206e6577206f776e657220697320746865207a65726f206160448201526564647265737360d01b60648201526084016108a3565b610e6781611e99565b60008281526005602052604080822080546001600160a01b0319166001600160a01b0387811691821790925591518593918516917f8c5be1e5ebec7d5bd14f71427d1e84f3dd0314c0f7b2291e5b200ac8c7c3b92591a4505050565b60006001600160a01b0382166118d85760405162461bcd60e51b815260206004820152603160248201527f455243373231413a206e756d626572206d696e74656420717565727920666f7260448201527020746865207a65726f206164647265737360781b60648201526084016108a3565b506001600160a01b0316600090815260046020526040902054600160801b90046001600160801b031690565b6000826119118584612113565b14949350505050565b6000546001600160a01b03851661197d5760405162461bcd60e51b815260206004820152602160248201527f455243373231413a206d696e7420746f20746865207a65726f206164647265736044820152607360f81b60648201526084016108a3565b836119db5760405162461bcd60e51b815260206004820152602860248201527f455243373231413a207175616e74697479206d75737420626520677265617465604482015267072207468616e20360c41b60648201526084016108a3565b6001600160a01b03851660008181526004602090815260408083208054600160801b6001600160801b031982166001600160801b039283168c01831690811782900483168c01909216021790558483526003909152812080546001600160e01b031916909217600160a01b4267ffffffffffffffff16021790915581905b85811015611ad45760405182906001600160a01b038916906000907fddf252ad1be2c89b69c2b068fc378daa952ba7f163c4a11628f55a4df523b3ef908290a48315611ac857611aac6000888488611eeb565b611ac85760405162461bcd60e51b81526004016108a3906126dc565b60019182019101611a59565b506000555b5050505050565b6000611aeb82611dc2565b80519091506000906001600160a01b0316336001600160a01b03161480611b22575033611b1784610838565b6001600160a01b0316145b80611b3457508151611b3490336106cb565b905080611b9e5760405162461bcd60e51b815260206004820152603260248201527f455243373231413a207472616e736665722063616c6c6572206973206e6f74206044820152711bdddb995c881b9bdc88185c1c1c9bdd995960721b60648201526084016108a3565b846001600160a01b031682600001516001600160a01b031614611c125760405162461bcd60e51b815260206004820152602660248201527f455243373231413a207472616e736665722066726f6d20696e636f72726563746044820152651037bbb732b960d11b60648201526084016108a3565b6001600160a01b038416611c765760405162461bcd60e51b815260206004820152602560248201527f455243373231413a207472616e7366657220746f20746865207a65726f206164604482015264647265737360d81b60648201526084016108a3565b611c86600084846000015161180a565b6001600160a01b03858116600090815260046020908152604080832080546001600160801b03198082166001600160801b03928316600019018316179092558986168086528386208054938416938316600190810190931693909317909255888552600390935281842080546001600160e01b031916909117600160a01b4267ffffffffffffffff1602179055908601808352912054909116611d7b57611d2e816000541190565b15611d7b578251600082815260036020908152604090912080549186015167ffffffffffffffff16600160a01b026001600160e01b03199092166001600160a01b03909316929092171790555b5082846001600160a01b0316866001600160a01b03167fddf252ad1be2c89b69c2b068fc378daa952ba7f163c4a11628f55a4df523b3ef60405160405180910390a4611ad9565b6040805180820190915260008082526020820152611de1826000541190565b611e405760405162461bcd60e51b815260206004820152602a60248201527f455243373231413a206f776e657220717565727920666f72206e6f6e657869736044820152693a32b73a103a37b5b2b760b11b60648201526084016108a3565b815b6000818152600360209081526040918290208251808401909352546001600160a01b038116808452600160a01b90910467ffffffffffffffff169183019190915215611e8f579392505050565b5060001901611e42565b600780546001600160a01b038381166001600160a01b0319831681179093556040519116919082907f8be0079c531659141344cd1fd0a4f28419497f9722a3daafe3b4186f6b6457e090600090a35050565b60006001600160a01b0384163b15611fed57604051630a85bd0160e11b81526001600160a01b0385169063150b7a0290611f2f90339089908890889060040161261e565b602060405180830381600087803b158015611f4957600080fd5b505af1925050508015611f79575060408051601f3d908101601f19168201909252611f769181019061250a565b60015b611fd3573d808015611fa7576040519150601f19603f3d011682016040523d82523d6000602084013e611fac565b606091505b508051611fcb5760405162461bcd60e51b81526004016108a3906126dc565b805181602001fd5b6001600160e01b031916630a85bd0160e11b149050611ff1565b5060015b949350505050565b60608161201d5750506040805180820190915260018152600360fc1b602082015290565b8160005b81156120475780612031816127cc565b91506120409050600a83612747565b9150612021565b60008167ffffffffffffffff81111561207057634e487b7160e01b600052604160045260246000fd5b6040519080825280601f01601f19166020018201604052801561209a576020820181803683370190505b5090505b8415611ff1576120af60018361277a565b91506120bc600a866127e7565b6120c790603061272f565b60f81b8183815181106120ea57634e487b7160e01b600052603260045260246000fd5b60200101906001600160f81b031916908160001a90535061210c600a86612747565b945061209e565b600081815b84518110156121c557600085828151811061214357634e487b7160e01b600052603260045260246000fd5b602002602001015190508083116121855760408051602081018590529081018290526060016040516020818303038152906040528051906020012092506121b2565b60408051602081018390529081018490526060016040516020818303038152906040528051906020012092505b50806121bd816127cc565b915050612118565b509392505050565b8280546121d990612791565b90600052602060002090601f0160209004810192826121fb5760008555612241565b82601f1061221457805160ff1916838001178555612241565b82800160010185558215612241579182015b82811115612241578251825591602001919060010190612226565b50610ee39291505b80821115610ee35760008155600101612249565b600067ffffffffffffffff8084111561227857612278612827565b604051601f8501601f19908116603f011681019082821181831017156122a0576122a0612827565b816040528093508581528686860111156122b957600080fd5b858560208301376000602087830101525050509392505050565b80356001600160a01b03811681146122ea57600080fd5b919050565b803580151581146122ea57600080fd5b600082601f83011261230f578081fd5b61172e8383356020850161225d565b60006020828403121561232f578081fd5b61172e826122d3565b6000806040838503121561234a578081fd5b612353836122d3565b9150612361602084016122d3565b90509250929050565b60008060006060848603121561237e578081fd5b612387846122d3565b9250612395602085016122d3565b9150604084013590509250925092565b600080600080608085870312156123ba578081fd5b6123c3856122d3565b93506123d1602086016122d3565b925060408501359150606085013567ffffffffffffffff8111156123f3578182fd5b8501601f81018713612403578182fd5b6124128782356020840161225d565b91505092959194509250565b60008060408385031215612430578182fd5b612439836122d3565b9150612361602084016122ef565b60008060408385031215612459578182fd5b612462836122d3565b946020939093013593505050565b600060208284031215612481578081fd5b61172e826122ef565b6000806040838503121561249c578182fd5b6124a5836122ef565b9150602083013567ffffffffffffffff8111156124c0578182fd5b6124cc858286016122ff565b9150509250929050565b6000602082840312156124e7578081fd5b5035919050565b6000602082840312156124ff578081fd5b813561172e8161283d565b60006020828403121561251b578081fd5b815161172e8161283d565b600060208284031215612537578081fd5b813567ffffffffffffffff81111561254d578182fd5b611ff1848285016122ff565b60008060006040848603121561256d578081fd5b83359250602084013567ffffffffffffffff8082111561258b578283fd5b818601915086601f83011261259e578283fd5b8135818111156125ac578384fd5b8760208260051b85010111156125c0578384fd5b6020830194508093505050509250925092565b60008151808452815b818110156125f8576020818501810151868301820152016125dc565b818111156126095782602083870101525b50601f01601f19169290920160200192915050565b6001600160a01b0385811682528416602082015260408101839052608060608201819052600090612651908301846125d3565b9695505050505050565b60208152600061172e60208301846125d3565b60608152600061268160608301866125d3565b828103602084015261269381866125d3565b9050828103604084015261265181856125d3565b6020808252818101527f4f776e61626c653a2063616c6c6572206973206e6f7420746865206f776e6572604082015260600190565b60208082526033908201527f455243373231413a207472616e7366657220746f206e6f6e204552433732315260408201527232b1b2b4bb32b91034b6b83632b6b2b73a32b960691b606082015260800190565b60008219821115612742576127426127fb565b500190565b60008261275657612756612811565b500490565b6000816000190483118215151615612775576127756127fb565b500290565b60008282101561278c5761278c6127fb565b500390565b600181811c908216806127a557607f821691505b602082108114156127c657634e487b7160e01b600052602260045260246000fd5b50919050565b60006000198214156127e0576127e06127fb565b5060010190565b6000826127f6576127f6612811565b500690565b634e487b7160e01b600052601160045260246000fd5b634e487b7160e01b600052601260045260246000fd5b634e487b7160e01b600052604160045260246000fd5b6001600160e01b031981168114610e6757600080fdfea164736f6c6343000804000a",
  "devdoc": {
    "kind": "dev",
    "methods": {
      "approve(address,uint256)": {
        "details": "See {IERC721-approve}."
      },
      "balanceOf(address)": {
        "details": "See {IERC721-balanceOf}."
      },
      "getApproved(uint256)": {
        "details": "See {IERC721-getApproved}."
      },
      "isApprovedForAll(address,address)": {
        "details": "See {IERC721-isApprovedForAll}."
      },
      "name()": {
        "details": "See {IERC721Metadata-name}."
      },
      "owner()": {
        "details": "Returns the address of the current owner."
      },
      "ownerOf(uint256)": {
        "details": "See {IERC721-ownerOf}."
      },
      "renounceOwnership()": {
        "details": "Leaves the contract without owner. It will not be possible to call `onlyOwner` functions anymore. Can only be called by the current owner. NOTE: Renouncing ownership will leave the contract without an owner, thereby removing any functionality that is only available to the owner."
      },
      "safeTransferFrom(address,address,uint256)": {
        "details": "See {IERC721-safeTransferFrom}."
      },
      "safeTransferFrom(address,address,uint256,bytes)": {
        "details": "See {IERC721-safeTransferFrom}."
      },
      "setApprovalForAll(address,bool)": {
        "details": "See {IERC721-setApprovalForAll}."
      },
      "supportsInterface(bytes4)": {
        "details": "See {IERC165-supportsInterface}."
      },
      "symbol()": {
        "details": "See {IERC721Metadata-symbol}."
      },
      "tokenByIndex(uint256)": {
        "details": "See {IERC721Enumerable-tokenByIndex}."
      },
      "tokenOfOwnerByIndex(address,uint256)": {
        "details": "See {IERC721Enumerable-tokenOfOwnerByIndex}. This read function is O(totalSupply). If calling from a separate contract, be sure to test gas first. It may also degrade with extremely large collection sizes (e.g >> 10000), test for your use case."
      },
      "tokenURI(uint256)": {
        "details": "See {IERC721Metadata-tokenURI}."
      },
      "totalSupply()": {
        "details": "See {IERC721Enumerable-totalSupply}."
      },
      "transferFrom(address,address,uint256)": {
        "details": "See {IERC721-transferFrom}."
      },
      "transferOwnership(address)": {
        "details": "Transfers ownership of the contract to a new account (`newOwner`). Can only be called by the current owner."
      }
    },
    "version": 1
  },
  "userdoc": {
    "kind": "user",
    "methods": {},
    "version": 1
  },
  "storageLayout": {
    "storage": [
      {
        "astId": 2250,
        "contract": "contracts/DigitalHanamiNFT.sol:DigitalHanamiNFT",
        "label": "currentIndex",
        "offset": 0,
        "slot": "0",
        "type": "t_uint256"
      },
      {
        "astId": 2252,
        "contract": "contracts/DigitalHanamiNFT.sol:DigitalHanamiNFT",
        "label": "_name",
        "offset": 0,
        "slot": "1",
        "type": "t_string_storage"
      },
      {
        "astId": 2254,
        "contract": "contracts/DigitalHanamiNFT.sol:DigitalHanamiNFT",
        "label": "_symbol",
        "offset": 0,
        "slot": "2",
        "type": "t_string_storage"
      },
      {
        "astId": 2259,
        "contract": "contracts/DigitalHanamiNFT.sol:DigitalHanamiNFT",
        "label": "_ownerships",
        "offset": 0,
        "slot": "3",
        "type": "t_mapping(t_uint256,t_struct(TokenOwnership)2243_storage)"
      },
      {
        "astId": 2264,
        "contract": "contracts/DigitalHanamiNFT.sol:DigitalHanamiNFT",
        "label": "_addressData",
        "offset": 0,
        "slot": "4",
        "type": "t_mapping(t_address,t_struct(AddressData)2248_storage)"
      },
      {
        "astId": 2268,
        "contract": "contracts/DigitalHanamiNFT.sol:DigitalHanamiNFT",
        "label": "_tokenApprovals",
        "offset": 0,
        "slot": "5",
        "type": "t_mapping(t_uint256,t_address)"
      },
      {
        "astId": 2274,
        "contract": "contracts/DigitalHanamiNFT.sol:DigitalHanamiNFT",
        "label": "_operatorApprovals",
        "offset": 0,
        "slot": "6",
        "type": "t_mapping(t_address,t_mapping(t_address,t_bool))"
      },
      {
        "astId": 7,
        "contract": "contracts/DigitalHanamiNFT.sol:DigitalHanamiNFT",
        "label": "_owner",
        "offset": 0,
        "slot": "7",
        "type": "t_address"
      },
      {
        "astId": 1787,
        "contract": "contracts/DigitalHanamiNFT.sol:DigitalHanamiNFT",
        "label": "baseURI",
        "offset": 0,
        "slot": "8",
        "type": "t_string_storage"
      },
      {
        "astId": 1789,
        "contract": "contracts/DigitalHanamiNFT.sol:DigitalHanamiNFT",
        "label": "notRevealedUri",
        "offset": 0,
        "slot": "9",
        "type": "t_string_storage"
      },
      {
        "astId": 1794,
        "contract": "contracts/DigitalHanamiNFT.sol:DigitalHanamiNFT",
        "label": "baseURIHash",
        "offset": 0,
        "slot": "10",
        "type": "t_bytes32"
      },
      {
        "astId": 1796,
        "contract": "contracts/DigitalHanamiNFT.sol:DigitalHanamiNFT",
        "label": "baseURIHashUpdateTime",
        "offset": 0,
        "slot": "11",
        "type": "t_uint256"
      },
      {
        "astId": 1811,
        "contract": "contracts/DigitalHanamiNFT.sol:DigitalHanamiNFT",
        "label": "isPresaleLive",
        "offset": 0,
        "slot": "12",
        "type": "t_bool"
      },
      {
        "astId": 1814,
        "contract": "contracts/DigitalHanamiNFT.sol:DigitalHanamiNFT",
        "label": "isPublicSaleLive",
        "offset": 1,
        "slot": "12",
        "type": "t_bool"
      },
      {
        "astId": 1817,
        "contract": "contracts/DigitalHanamiNFT.sol:DigitalHanamiNFT",
        "label": "revealed",
        "offset": 2,
        "slot": "12",
        "type": "t_bool"
      },
      {
        "astId": 1819,
        "contract": "contracts/DigitalHanamiNFT.sol:DigitalHanamiNFT",
        "label": "merkleRootHash",
        "offset": 0,
        "slot": "13",
        "type": "t_bytes32"
      },
      {
        "astId": 1821,
        "contract": "contracts/DigitalHanamiNFT.sol:DigitalHanamiNFT",
        "label": "treasuryWallet",
        "offset": 0,
        "slot": "14",
        "type": "t_address"
      }
    ],
    "types": {
      "t_address": {
        "encoding": "inplace",
        "label": "address",
        "numberOfBytes": "20"
      },
      "t_bool": {
        "encoding": "inplace",
        "label": "bool",
        "numberOfBytes": "1"
      },
      "t_bytes32": {
        "encoding": "inplace",
        "label": "bytes32",
        "numberOfBytes": "32"
      },
      "t_mapping(t_address,t_bool)": {
        "encoding": "mapping",
        "key": "t_address",
        "label": "mapping(address => bool)",
        "numberOfBytes": "32",
        "value": "t_bool"
      },
      "t_mapping(t_address,t_mapping(t_address,t_bool))": {
        "encoding": "mapping",
        "key": "t_address",
        "label": "mapping(address => mapping(address => bool))",
        "numberOfBytes": "32",
        "value": "t_mapping(t_address,t_bool)"
      },
      "t_mapping(t_address,t_struct(AddressData)2248_storage)": {
        "encoding": "mapping",
        "key": "t_address",
        "label": "mapping(address => struct ERC721A.AddressData)",
        "numberOfBytes": "32",
        "value": "t_struct(AddressData)2248_storage"
      },
      "t_mapping(t_uint256,t_address)": {
        "encoding": "mapping",
        "key": "t_uint256",
        "label": "mapping(uint256 => address)",
        "numberOfBytes": "32",
        "value": "t_address"
      },
      "t_mapping(t_uint256,t_struct(TokenOwnership)2243_storage)": {
        "encoding": "mapping",
        "key": "t_uint256",
        "label": "mapping(uint256 => struct ERC721A.TokenOwnership)",
        "numberOfBytes": "32",
        "value": "t_struct(TokenOwnership)2243_storage"
      },
      "t_string_storage": {
        "encoding": "bytes",
        "label": "string",
        "numberOfBytes": "32"
      },
      "t_struct(AddressData)2248_storage": {
        "encoding": "inplace",
        "label": "struct ERC721A.AddressData",
        "members": [
          {
            "astId": 2245,
            "contract": "contracts/DigitalHanamiNFT.sol:DigitalHanamiNFT",
            "label": "balance",
            "offset": 0,
            "slot": "0",
            "type": "t_uint128"
          },
          {
            "astId": 2247,
            "contract": "contracts/DigitalHanamiNFT.sol:DigitalHanamiNFT",
            "label": "numberMinted",
            "offset": 16,
            "slot": "0",
            "type": "t_uint128"
          }
        ],
        "numberOfBytes": "32"
      },
      "t_struct(TokenOwnership)2243_storage": {
        "encoding": "inplace",
        "label": "struct ERC721A.TokenOwnership",
        "members": [
          {
            "astId": 2240,
            "contract": "contracts/DigitalHanamiNFT.sol:DigitalHanamiNFT",
            "label": "addr",
            "offset": 0,
            "slot": "0",
            "type": "t_address"
          },
          {
            "astId": 2242,
            "contract": "contracts/DigitalHanamiNFT.sol:DigitalHanamiNFT",
            "label": "startTimestamp",
            "offset": 20,
            "slot": "0",
            "type": "t_uint64"
          }
        ],
        "numberOfBytes": "32"
      },
      "t_uint128": {
        "encoding": "inplace",
        "label": "uint128",
        "numberOfBytes": "16"
      },
      "t_uint256": {
        "encoding": "inplace",
        "label": "uint256",
        "numberOfBytes": "32"
      },
      "t_uint64": {
        "encoding": "inplace",
        "label": "uint64",
        "numberOfBytes": "8"
      }
    }
  }
}